:100000000C94A8010C94D9010C94D9010C94D90139
:100010000C94D9010C94D9010C94D9010C94D901F8
:100020000C94D9010C94D9010C94D9010C94D901E8
:100030000C94D9010C94D9010C94D9010C94D901D8
:100040000C94D9010C94D9010C94D9010C94D901C8
:100050000C94D9010C94D9010C94D9010C944A0543
:100060000C94D9010C9414050C94EA040C94D90155
:100070000C94D9010C94D9010C94D9010C94D90198
:100080000C94D9010C94D9010C94D9010C94D90188
:100090000C94D9010C94D9010C94D9010C94D90178
:1000A0000C94D9010C94D9010C94D9010C94D90168
:1000B0000C94D9010C94D9010C94D9010C94D90158
:1000C0000C94D9010C94D9010C94D9010C94D90148
:1000D0000C94D9010C94D9010C94D9010C94D90138
:1000E0000C94D9010C94B3020C941E020C943D02A2
:1000F0000C949F020C9422020C9441020C940C026A
:100100000C942D020C944B020C9463020C945D022F
:100110000C9490020C9437020C94F9020C9459023E
:100120000C942A020C9446030C9433020C9494050C
:100130000C9407020C9453020C9426020C944F0268
:100140000C94CF070C9445020C94C10200407A1025
:10015000F35A00A0724E18090010A5D4E80000E878
:100160007648170000E40B54020000CA9A3B0000D6
:1001700000E1F505000080969800000040420F0065
:100180000000A08601000000102700000000E80326
:10019000000000006400000000000A0000000000F1
:1001A0000100000000002C76D888DC674F0823DFB0
:1001B000C1DFAE59E1B1B796E5E3E453C63AE65183
:1001C000997696E8E6C28426EB898C9B62ED407CAA
:1001D0006FFCEFBC9C9F40F2BAA56FA5F490055A46
:1001E0002AF75C936B6CF9676DC11BFCE0E40D476B
:1001F000FEF520E6B500D0ED902E0300943577058E
:100200000080841E080000204E0A000000C80C3345
:100210003333330F986E12831141EF8D2114893BD4
:10022000E65516CFFEE6DB18D1844B381BF77C1D54
:10023000901DA4BBE424203284725E228100C9F1A7
:1002400024ECA1E53D2700002100240027002A001E
:100250002D003000330001010000040107010A01F4
:1002600000002200250028002B002E003100340061
:1002700002010000050108010B0105050505070540
:1002800008080808020202020A0A08080404040412
:10029000010101010101010103030303030303033E
:1002A000040707070C0C0C0C0C0C0C0C02020202CD
:1002B00006060606060606060B0B0B0B0B0B0B0BB6
:1002C0000102102020080810204010204080020168
:1002D000020108040201010204081020408080404D
:1002E000201008040201800402018040201008044C
:1002F00002010804020101020408102040800102EA
:1003000004081020408000000A0B02090C0D0E08A2
:1003100007030401000000000000000000000000CE
:1003200000000000000000000000000000000000CD
:10033000000012111000000000000000000000008A
:100340000000000000000000000000009405CF073E
:1003500011241FBECFEFD1E2DEBFCDBF00E00CBF46
:1003600022E0AAE2B2E001C01D92A73EB207E1F787
:1003700012E0A0E0B2E0E4ECFBE100E00BBF02C061
:1003800007900D92AA32B107D9F711E0C7EAD1E080
:1003900000E006C021970109802FFE010E94B20BE8
:1003A000C63AD10780E00807A9F70E94D2050C944D
:1003B000D00D0C940000382FE3E1F3E08491EDECD4
:1003C000F2E02491E7E8F2E09491992309F435C032
:1003D000882311F181508231F8F4E82FF0E088276A
:1003E000EB50FE4F8F4F0C94B20B26022A020702ED
:1003F0001E0222020C022D02330237023D0241028C
:1004000045024B024F020C02530259025D028091D9
:1004100080008F7780938000E92FF0E0EE0FFF1FC0
:10042000E05AFD4FA591B4918FB7F894EC9131113A
:1004300048C020952E232C938FBF08958091800073
:100440008F7DE8CF80918000877FE4CF84B58F7760
:1004500084BDE2CF84B58F7DFBCF8091B0008F77D4
:100460008093B000D9CF8091B0008F7DF9CF80917B
:1004700090008F7780939000CFCF809190008F7DF8
:10048000F9CF80919000877FF5CF8091A0008F7782
:100490008093A000C1CF8091A0008F7DF9CF809183
:1004A000A000877FF5CF809120018F778093200176
:1004B000B3CF809120018F7DF9CF80912001877F7C
:1004C000F5CF2E2BB8CFAF92BF92CF92DF92EF92A3
:1004D000FF920F931F93CF93DF936C017B018B01EE
:1004E000040F151FEB015E01AE18BF08C017D1073E
:1004F00059F06991D601ED91FC910190F081E02DC8
:10050000C6011995892B79F7C501DF91CF911F910C
:100510000F91FF90EF90DF90CF90BF90AF90089534
:10052000FC01538D448D252F30E0842F90E0821BF9
:10053000930B541710F0CF96089501970895FC017E
:10054000918D828D981761F0A28DAE0FBF2FB11DD6
:100550005D968C91928D9F5F9F73928F90E008952E
:100560008FEF9FEF0895FC01918D828D981731F0E8
:10057000828DE80FF11D858D90E008958FEF9FEF3C
:100580000895FC01918D228D892F90E0805C9F4F12
:10059000821B91098F739927089584E392E00E944A
:1005A000C10221E0892B09F420E0822F0895FC018B
:1005B000A48DA80FB92FB11DA35ABF4F2C91848DC4
:1005C00090E001968F739927848FA689B7892C9321
:1005D000A089B1898C91837080648C93938D848D74
:1005E000981306C00288F389E02D80818F7D808377
:1005F0000895EF92FF920F931F93CF93DF93EC0137
:1006000081E0888F9B8D8C8D98131AC0E889F989B9
:10061000808185FF15C09FB7F894EE89FF896083BC
:10062000E889F98980818370806480839FBF81E03D
:1006300090E0DF91CF911F910F91FF90EF9008957F
:10064000F62E0B8D10E00F5F1F4F0F731127E02E5A
:100650008C8D8E110CC00FB607FCFACFE889F98992
:10066000808185FFF5CFCE010E94D702F1CFEB8DBF
:10067000EC0FFD2FF11DE35AFF4FF0829FB7F89466
:100680000B8FEA89FB8980818062CFCFCF93DF9384
:10069000EC01888D8823B9F0AA89BB89E889F9899A
:1006A0008C9185FD03C0808186FD0DC00FB607FCCF
:1006B000F7CF8C9185FFF2CF808185FFEDCFCE0102
:1006C0000E94D702E9CFDF91CF91089580E090E0BA
:1006D000892B29F00E94CD0281110E94000080E048
:1006E00090E0892B49F080E090E0892B29F00E946E
:1006F000000081110E94000080E090E0892B49F009
:1007000080E090E0892B29F00E94000081110E9476
:10071000000080E090E0892B49F080E090E0892B98
:1007200029F00E94000081110C94000008953FB749
:10073000F89480912F0290913002A0913102B091F3
:10074000320226B5A89B05C02F3F19F00196A11DC6
:10075000B11D3FBFBA2FA92F982F8827BC01CD010B
:10076000620F711D811D911D42E0660F771F881F6A
:10077000991F4A95D1F708958F929F92AF92BF9299
:10078000CF92DF92EF92FF924B015C010E949703A0
:100790006B017C010E9497036C197D098E099F09EA
:1007A000683E734081059105A8F321E0821A910803
:1007B000A108B10888EEC80E83E0D81EE11CF11C28
:1007C00081149104A104B10429F7FF90EF90DF9008
:1007D000CF90BF90AF909F908F9008950F931F93ED
:1007E000CF93DF93EC0188819981009759F02A819A
:1007F0003B812617370730F081E0DF91CF911F91C1
:100800000F9108958B016F5F7F4F0E94DF0C00975F
:1008100059F0998388831B830A832C813D81232B84
:1008200059F7FC011082E8CF80E0E7CFCF93DF9348
:10083000EC0188819981009711F00E94560C198271
:1008400018821D821C821B821A82DF91CF9108952B
:10085000EF92FF920F931F93CF93DF93EC01FB0175
:10086000E080F180E114F10411F10481158101159A
:100870001105A9F08C819D81080F191FB801CE01C7
:100880000E94EE03882399F0288139818C819D8113
:10089000B701820F931F0E94C90D1D830C83CE01E7
:1008A000DF91CF911F910F91FF90EF900895CE01AE
:1008B0000E941604F4CFEF92FF920F931F93CF93F1
:1008C000DF93EC017B018A01BA010E94EE038111E2
:1008D0000BC0CE010E941604CE01DF91CF911F9173
:1008E0000F91FF90EF9008951D830C83B7018881CD
:1008F00099810E94C90DF0CFEF92FF920F931F9341
:10090000CF93DF93CDB7DEB7A1970FB6F894DEBFD4
:100910000FBECDBF7C01CB01BA01F701118210825D
:1009200013821282158214828E010F5F1F4F22E004
:1009300044E00E94DB070097C9F0FC010190002011
:10094000E9F73197AF01481B590BBC01C7010E9461
:100950005B04A1960FB6F894DEBF0FBECDBFDF914A
:10096000CF911F910F91FF90EF900895C7010E94C2
:100970001604EFCFCF93DF93EC01FB0186179707A7
:1009800049F0608171816115710541F044815581A3
:100990000E945B04CE01DF91CF9108950E9416045E
:1009A000F9CFFC0111821082138212821582148207
:1009B000FB0101900020E9F73197AF01461B570B6F
:1009C0000C945B04FC0180819181009711F00C94E0
:1009D000560C08951F920F920FB60F9211240BB66A
:1009E0000F922F933F934F935F936F937F938F93C8
:1009F0009F93AF93BF93EF93FF9384E392E00E94A2
:100A0000D702FF91EF91BF91AF919F918F917F910D
:100A10006F915F914F913F912F910F900BBE0F906F
:100A20000FBE0F901F9018951F920F920FB60F9246
:100A300011240BB60F922F938F939F93EF93FF93F5
:100A4000E0914402F09145028081E0914A02F091E8
:100A50004B0282FD1DC0908180914D028F5F8F738C
:100A600020914E02821741F0E0914D02F0E0EC5CE3
:100A7000FD4F958F80934D02FF91EF919F918F9144
:100A80002F910F900BBE0F900FBE0F901F901895D7
:100A90008081F2CF1F920F920FB60F9211242F93E5
:100AA0003F938F939F93AF93BF9380912B0290912D
:100AB0002C02A0912D02B0912E0230912A0223E047
:100AC000230F2D3758F50196A11DB11D20932A0241
:100AD00080932B0290932C02A0932D02B0932E02B0
:100AE00080912F0290913002A0913102B091320298
:100AF0000196A11DB11D80932F0290933002A09307
:100B00003102B0933202BF91AF919F918F913F918B
:100B10002F910F900FBE0F901F90189526E8230F6E
:100B20000296A11DB11DD2CFE4E3F2E0138212823E
:100B300088EE93E0A0E0B0E084839583A683B7833A
:100B400083E192E09183808385EC90E095878487B0
:100B500084EC90E09787868780EC90E0918B808B87
:100B600081EC90E0938B828B82EC90E0958B848B70
:100B700086EC90E0978B868B118E128E138E148EDE
:100B800066E272E08DED92E00E94D10466E272E0CE
:100B900087ED92E00E94D10466E272E081ED92E07E
:100BA0000C94D104CF93DF93CDB7DEB72C970FB65B
:100BB000F894DEBF0FBECDBF789484B5826084BD4B
:100BC00084B5816084BD85B5826085BD85B5816051
:100BD00085BD80916E00816080936E0010928100CF
:100BE000809181008260809381008091810081608A
:100BF000809381008091800081608093800080914B
:100C0000B10084608093B1008091B00081608093D6
:100C1000B00080919100826080939100809191005A
:100C2000816080939100809190008160809390001A
:100C30008091A10082608093A1008091A1008160D9
:100C40008093A1008091A00081608093A00080919A
:100C50002101826080932101809121018160809334
:100C600021018091200181608093200180917A0090
:100C7000846080937A0080917A00826080937A0009
:100C800080917A00816080937A0080917A008068F8
:100C900080937A001092C100E0914402F0914502E5
:100CA00082E08083E0914002F09141021082E09165
:100CB0004202F09143028FEC808310924C02E0914B
:100CC0004802F091490286E08083E0914602F0916B
:100CD0004702808180618083E0914602F091470263
:100CE000808188608083E0914602F0914702808194
:100CF00080688083E0914602F091470280818F7D79
:100D00008083EDECF2E02491E7E8F2E0849188231F
:100D100099F090E0880F991FFC01EA5BFD4FA591C7
:100D2000B491FC01E05AFD4F859194918FB7F894EE
:100D3000EC91E22BEC938FBF11E000E484E392E0AE
:100D40000E949F0280930002863709F021C1109310
:100D5000330281E00E94DB0180913302882309F491
:100D600014C180917B00877F80937B0000937C007F
:100D700080917A00806480937A0080917A0086FD69
:100D8000FCCF8091780060917900762F682F072E34
:100D9000000C880B990B0E944C0A20E030E040EADE
:100DA00050E40E94870A20E030E048EC52E40E94C0
:100DB000870A20E030E040E85AE30E94870AAB014E
:100DC000BC01CE0101960E947C0461E272E0CE017A
:100DD00007960E94D104BE016F5F7F4FCE01079638
:100DE0000E942804BC018DED92E00E94BA04CE015D
:100DF00007960E94E204CE0101960E94E2041A8244
:100E000019821C821B821E821D826DED72E0CE0152
:100E100001960E94BA044D815E8169817A8184E3E2
:100E200092E00E946302CE0101960E94E20468EE05
:100E300073E080E090E00E94BC0320E030E040E8F6
:100E40005FE3609105027091060280910702909124
:100E500008020E94460BAB01BC014093050250936F
:100E600006026093070270930802CE0101960E9469
:100E70007C0464E272E0CE0107960E94D104BE01B8
:100E80006F5F7F4FCE0107960E942804BC0181ED61
:100E900092E00E94BA04CE0107960E94E204CE01BD
:100EA00001960E94E2041A8219821C821B821E8211
:100EB0001D8261ED72E0CE0101960E94BA044D815F
:100EC0005E8169817A8184E392E00E946302CE01AF
:100ED00001960E94E20464EF71E080E090E00E94DD
:100EE000BC0320E030E040E85FE3609101027091D4
:100EF000020280910302909104020E94460BAB0112
:100F0000BC0140930102509302026093030270936C
:100F10000402CE0101960E947C0467E272E0CE01D9
:100F200007960E94D104BE016F5F7F4FCE010796E6
:100F30000E942804BC0187ED92E00E94BA04CE0111
:100F400007960E94E204CE0101960E94E2041A82F2
:100F500019821C821B821E821D8267ED72E0CE0107
:100F600001960E94BA044D815E8169817A8184E391
:100F700092E00E946302CE0101960E94E20464EFB7
:100F800071E080E090E00E94BC030E946603D6CE30
:100F9000863609F0E1CE1092330280E0DBCE81ED9F
:100FA00092E00E94E20487ED92E00E94E2048DED5F
:100FB00092E00C94E204EF920F931F93CF93DF9390
:100FC000E80134E047FD34E1042E000C550B57FFD7
:100FD00003C0519541955109E32E022F242FAE01F4
:100FE0000E94F907CE01DF91CF911F910F91EF90F1
:100FF00008958F929F92AF92BF92CF92DF92EF921D
:10100000FF920F931F93CF93DF9300D000D000D0B7
:10101000CDB7DEB76A01F22EB02E102FFBE3AF2E54
:10102000A01608F41BE31F5F012F27E0AE014F5FFE
:101030005F4F0E947209BC018981982F997091308D
:1010400009F44EC09BE2E1FC04C09E2D9170E0FCCF
:1010500049C05E2D5071E82FE87083FF55C084E0D1
:10106000911101C083E0EF2DE81B8F1508F0E0E03F
:10107000D6018E2F20E25523C9F1992329F0D601FC
:101080009C93C60101966C0196012D5F3F4FE2FED5
:1010900033C08EE4D6018C9391E411969C93119702
:1010A00012968C93D9018E2F90E281112AC0E20F03
:1010B000F32FF11D10828EEF9FEF29960FB6F89453
:1010C000DEBF0FBECDBFDF91CF911F910F91FF907B
:1010D000EF90DF90CF90BF90AF909F908F9008954A
:1010E0009DE2B7CF90E2B5CF2D9381508111FCCF17
:1010F000CE0ED11CE0E0C1CF8EE6D6018C9391E6F6
:10110000CCCF9D938150D1CF482F447082FF3DC0FA
:1011100084E0911101C083E08F1510F4EF2DE81BDE
:10112000D6018E2F20E2552309F1992329F0D6010B
:101130009C93C60101966C0196012D5F3F4FE2FE24
:101140001BC089E4D6018C938EE411968C93119781
:1011500086E412968C93D9018E2F90E2882309F4AD
:10116000A6CF9D938150FACF2D9381508111FCCF52
:10117000CE0ED11CE0E0D9CF89E6D6018C938EE665
:1011800011968C93119786E6E4CF9B0177FF02C0FE
:1011900030E020E0A1E0B0E0911102C0B0E0A0E0BA
:1011A000F9013196AE0FBF1F8B2C912CBB2009F497
:1011B00061C05401EFEFAE1ABE0AAA0DBB1DFA16AC
:1011C0001B0619F014F04F2D4A1B511188C0E3FC87
:1011D00059C07601A42FB0E2A1114FC0C40ED11C9A
:1011E000992309F45BC040E0D6011196F601908383
:1011F0006D01552309F448C0012F060F9A81582F1D
:10120000507184FF03C0913309F4015010160CF0A3
:1012100047C0093008F008E0EEE2FE2E5B01A01A9C
:10122000B10885019194819491082F3F320729F4E8
:10123000D601FC92F60131966F016217730794F1A3
:10124000021713077CF5DB01A21BB30BAA24A3949E
:10125000B12CAC0EBD1EAA0DBB1D11968C91215058
:101260003109D601119628153905F4F0F60180836D
:101270006D01DBCFB12CA12CA0CFF701B1937F0181
:10128000A150AACF9111B0CFD601942F50E302C044
:101290005D9391509111FCCFC40ED11C40E0ACCFB6
:1012A00001E0BACF80E3DBCF6217730731F49633E6
:1012B00088F4953311F4552369F0F6018083FD011C
:1012C000842F90E2811108C0A40FB11D1C9290E000
:1012D00080E0F3CE81E3F1CF91938150F3CF911170
:1012E00083CF8ACF283008F027E03327DA01990F1F
:1012F000311D87FD916000966105710539F43260FA
:101300002E5F3D9330E32A95E1F708959F3F30F03B
:1013100080387105610509F03C5F3C5F3D93913079
:1013200008F08068911DDF93CF931F930F93FF9276
:10133000EF92192F987F9695E92F96959695E90F3C
:10134000FF27EA55FE4F99273327EE24FF24A701F4
:10135000E70105900894079428F4360FE71EF81E5D
:10136000491F511D660F771F881F991F0694A1F70B
:101370000590079428F4E70EF81E491F561FC11D5B
:10138000770F881F991F661F0694A1F70590079491
:1013900028F4F80E491F561FC71FD11D880F991F2B
:1013A000661F771F0694A1F70590079420F4490F54
:1013B000561FC71FD81F990F661F771F881F0694D7
:1013C000A9F784911095177041F0D695C795579558
:1013D0004795F794E7941A95C1F7ECE4F1E0689427
:1013E0001590159135916591959105907FE27395D2
:1013F000E118F10A430B560BC90BD009C0F7E10CF9
:10140000F11E431F561FC91FD01D7EF4703311F407
:101410008A95E6CFE894015030F0080F0AF40027CF
:10142000021708F4202F2395022F7A3328F079E34E
:101430007D932A95E9F710C07D932A9589F6069445
:1014400097956795379517951794E118F10A430B0F
:10145000560BC90BD00998F023957E9173957A337A
:1014600008F070E37C932013B8F77E9170617D9350
:1014700030F0839571E37D9370E32A95E1F71124B1
:10148000EF90FF900F911F91CF91DF91992787FDEA
:1014900090950895E89409C097FB3EF49095809547
:1014A000709561957F4F8F4F9F4F9923A9F0F92F2A
:1014B00096E9BB279395F695879577956795B795A8
:1014C000F111F8CFFAF4BB0F11F460FF1BC06F5F8E
:1014D0007F4F8F4F9F4F16C0882311F096E911C0A0
:1014E000772321F09EE8872F762F05C0662371F0C1
:1014F00096E8862F70E060E02AF09A95660F771FD5
:10150000881FDAF7880F9695879597F908950E94B6
:101510009A0A0C940B0B0E94FD0A38F00E94040BEF
:1015200020F0952311F00C94F40A0C94FA0A11247B
:101530000C943F0B0E941C0B70F3959FC1F3950F09
:1015400050E0551F629FF001729FBB27F00DB11D47
:10155000639FAA27F00DB11DAA1F649F6627B00DD7
:10156000A11D661F829F2227B00DA11D621F739FC0
:10157000B00DA11D621F839FA00D611D221F749FCE
:101580003327A00D611D231F849F600D211D822F15
:10159000762F6A2F11249F5750409AF0F1F088233C
:1015A0004AF0EE0FFF1FBB1F661F771F881F915069
:1015B0005040A9F79E3F510580F00C94F40A0C941A
:1015C0003F0B5F3FE4F3983ED4F38695779567959C
:1015D000B795F795E7959F5FC1F7FE2B880F911D93
:1015E0009695879597F9089597F99F6780E870E039
:1015F00060E008959FEF80EC089500240A94161689
:10160000170618060906089500240A9412161306F0
:10161000140605060895092E0394000C11F488237E
:1016200052F0BB0F40F4BF2B11F460FF04C06F5F9A
:101630007F4F8F4F9F4F089557FD9058440F551F70
:1016400059F05F3F71F04795880F97FB991F61F044
:101650009F3F79F087950895121613061406551FBB
:10166000F2CF4695F1DF08C0161617061806991F27
:10167000F1CF86957105610508940895E894BB271C
:1016800066277727CB0197F908955058BB27AA27DB
:101690000E945D0B0C940B0B0E94FD0A38F00E9417
:1016A000040B20F039F49F3F19F426F40C94FA0A45
:1016B0000EF4E095E7FB0C94F40AE92F0E941C0B52
:1016C00058F3BA17620773078407950720F079F477
:1016D000A6F50C943E0B0EF4E0950B2EBA2FA02D20
:1016E0000B01B90190010C01CA01A0011124FF27CF
:1016F000591B99F0593F50F4503E68F11A16F040CA
:10170000A22F232F342F4427585FF3CF46953795C8
:101710002795A795F0405395C9F77EF41F16BA0B8D
:10172000620B730B840BBAF09150A1F0FF0FBB1F3B
:10173000661F771F881FC2F70EC0BA0F621F731F84
:10174000841F48F4879577956795B795F7959E3FE1
:1017500008F0B0CF9395880F08F09927EE0F979572
:1017600087950895EE0FFF1F881F8BBF0790F69196
:10177000E02D19940F931F93CF93DF93823091053F
:1017800010F482E090E0E091E502F091E60230E0B2
:1017900020E0B0E0A0E0309799F42115310509F47C
:1017A0004AC0281B390B24303105D8F58A819B812A
:1017B0006115710589F1FB0193838283FE0111C0DC
:1017C000408151810281138148175907E0F0481781
:1017D000590799F4109761F012960C93129713968B
:1017E0001C933296CF01DF91CF911F910F910895F5
:1017F0000093E5021093E602F4CF2115310551F074
:101800004217530738F0A901DB019A01BD01DF013E
:10181000F801C1CFEF01F9CF9093E6028093E50282
:10182000CDCFFE01E20FF31F819391932250310936
:1018300039832883D7CF2091E3023091E402232B10
:1018400041F420910B0230910C023093E40220937A
:10185000E3022091090230910A022115310541F479
:101860002DB73EB740910D0250910E02241B350B4F
:10187000E091E302F091E402E217F307A0F42E1BDB
:101880003F0B2817390778F0AC014E5F5F4F2417E4
:10189000350748F04E0F5F1F5093E4024093E30278
:1018A000819391939FCFF0E0E0E09CCFCF93DF93C3
:1018B0000097E9F0FC01329713821282A091E502B1
:1018C000B091E602ED0130E020E01097A1F4208114
:1018D0003181820F931F2091E3023091E402281797
:1018E000390709F061C0F093E402E093E302DF916D
:1018F000CF910895EA01CE17DF07E8F54A815B81B1
:101900009E0141155105B1F7E901FB83EA83499135
:101910005991C40FD51FEC17FD0761F480819181A7
:101920000296840F951FE9019983888382819381B0
:101930009B838A83F0E0E0E012968D919C9113974F
:101940000097B9F52D913C911197CD010296820F28
:10195000931F2091E3023091E4022817390739F6EA
:10196000309751F51092E6021092E502B093E4022E
:10197000A093E302BCCFD383C28340815181840F03
:10198000951FC817D90761F44E5F5F4F8881998111
:10199000480F591F518340838A819B81938382839F
:1019A0002115310509F0B0CFF093E602E093E5028E
:1019B0009ECFFD01DC01C0CF13821282D7CF4F92A0
:1019C0005F926F927F928F929F92AF92BF92CF92CF
:1019D000DF92EF92FF920F931F93CF93DF938C01CF
:1019E000009799F4CB01DF91CF911F910F91FF9058
:1019F000EF90DF90CF90BF90AF909F908F907F90AF
:101A00006F905F904F900C94BA0BFC01E60FF71F9C
:101A10009C0122503109E217F30708F4AEC0D90146
:101A2000CD91DC911197C617D70720F1C530D105AC
:101A300078F0CE0104978617970750F0C61BD70B96
:101A40002297C193D1936D937C93CF010E94560C42
:101A5000C801DF91CF911F910F91FF90EF90DF9020
:101A6000CF90BF90AF909F908F907F906F905F903E
:101A70004F9008955B01AC1ABD0A4C018C0E9D1E5F
:101A8000A091E502B091E602512C412CF12CE12C01
:101A9000109731F58091E3029091E4028815990541
:101AA00009F05CC04616570608F058C0809109023C
:101AB00090910A02009741F48DB79EB740910D02B4
:101AC00050910E02841B950BE817F90708F055C0DA
:101AD000F093E402E093E302F90171836083B8CFED
:101AE0008D919C91119712966C90129713967C9001
:101AF0001397A815B90559F56C0142E0C40ED11C25
:101B0000CA14DB0420F1AC014A195B09DA01129610
:101B1000159780F06282738251834083D9016D935F
:101B20007C93E114F10471F0D7011396FC93EE93CA
:101B300012978ECF22968C0F9D1FF901918380837F
:101B4000F301EFCFF093E602E093E50281CF481670
:101B5000590608F42C017D01D3019ACFCB010E94D4
:101B6000BA0B7C01009749F0AE01B8010E94C00D8C
:101B7000C8010E94560C87016BCF10E000E068CFCF
:101B8000FB01DC0102C001900D9241505040D8F79A
:101B90000895FB01DC0101900D920020E1F708950A
:101BA00011E0C7EAD1E000E006C0802FFE010E94EC
:101BB000B20B2196011DC83AD10780E00807A9F7AA
:041BC000F894FFCFC7
:101BC400660000A042000096420000E70280000088
:101BD400000000F902630290024603C1029F02B3AF
:0A1BE40002543B004C3B004F3B0055
:00000001FF
